{
  "_format": "hh-sol-artifact-1",
  "contractName": "CollectionFactory",
  "sourceName": "contracts/CollectionFactory.sol",
  "abi": [
    {
      "inputs": [],
      "stateMutability": "nonpayable",
      "type": "constructor"
    },
    {
      "inputs": [
        {
          "internalType": "address",
          "name": "owner",
          "type": "address"
        }
      ],
      "name": "OwnableInvalidOwner",
      "type": "error"
    },
    {
      "inputs": [
        {
          "internalType": "address",
          "name": "account",
          "type": "address"
        }
      ],
      "name": "OwnableUnauthorizedAccount",
      "type": "error"
    },
    {
      "anonymous": false,
      "inputs": [
        {
          "indexed": true,
          "internalType": "address",
          "name": "collection",
          "type": "address"
        },
        {
          "indexed": false,
          "internalType": "string",
          "name": "name",
          "type": "string"
        },
        {
          "indexed": true,
          "internalType": "address",
          "name": "creator",
          "type": "address"
        }
      ],
      "name": "CollectionCreated",
      "type": "event"
    },
    {
      "anonymous": false,
      "inputs": [
        {
          "indexed": true,
          "internalType": "address",
          "name": "previousOwner",
          "type": "address"
        },
        {
          "indexed": true,
          "internalType": "address",
          "name": "newOwner",
          "type": "address"
        }
      ],
      "name": "OwnershipTransferred",
      "type": "event"
    },
    {
      "inputs": [
        {
          "internalType": "string",
          "name": "name",
          "type": "string"
        },
        {
          "internalType": "string",
          "name": "symbol",
          "type": "string"
        },
        {
          "internalType": "string",
          "name": "baseURI",
          "type": "string"
        }
      ],
      "name": "createCollection",
      "outputs": [
        {
          "internalType": "address",
          "name": "",
          "type": "address"
        }
      ],
      "stateMutability": "payable",
      "type": "function"
    },
    {
      "inputs": [],
      "name": "creationFee",
      "outputs": [
        {
          "internalType": "uint256",
          "name": "",
          "type": "uint256"
        }
      ],
      "stateMutability": "view",
      "type": "function"
    },
    {
      "inputs": [],
      "name": "owner",
      "outputs": [
        {
          "internalType": "address",
          "name": "",
          "type": "address"
        }
      ],
      "stateMutability": "view",
      "type": "function"
    },
    {
      "inputs": [],
      "name": "protocolMintFee",
      "outputs": [
        {
          "internalType": "uint256",
          "name": "",
          "type": "uint256"
        }
      ],
      "stateMutability": "view",
      "type": "function"
    },
    {
      "inputs": [],
      "name": "renounceOwnership",
      "outputs": [],
      "stateMutability": "nonpayable",
      "type": "function"
    },
    {
      "inputs": [
        {
          "internalType": "uint256",
          "name": "_creationFee",
          "type": "uint256"
        },
        {
          "internalType": "uint256",
          "name": "_mintFee",
          "type": "uint256"
        }
      ],
      "name": "setFees",
      "outputs": [],
      "stateMutability": "nonpayable",
      "type": "function"
    },
    {
      "inputs": [
        {
          "internalType": "address",
          "name": "newOwner",
          "type": "address"
        }
      ],
      "name": "transferOwnership",
      "outputs": [],
      "stateMutability": "nonpayable",
      "type": "function"
    },
    {
      "inputs": [],
      "name": "withdrawAllFees",
      "outputs": [],
      "stateMutability": "nonpayable",
      "type": "function"
    }
  ],
  "bytecode": "0x608060405266b1a2bc2ec50000600155662386f26fc1000060025534801561002657600080fd5b5033600073ffffffffffffffffffffffffffffffffffffffff168173ffffffffffffffffffffffffffffffffffffffff160361009a5760006040517f1e4fbdf700000000000000000000000000000000000000000000000000000000815260040161009191906101b4565b60405180910390fd5b6100a9816100af60201b60201c565b506101cf565b60008060009054906101000a900473ffffffffffffffffffffffffffffffffffffffff169050816000806101000a81548173ffffffffffffffffffffffffffffffffffffffff021916908373ffffffffffffffffffffffffffffffffffffffff1602179055508173ffffffffffffffffffffffffffffffffffffffff168173ffffffffffffffffffffffffffffffffffffffff167f8be0079c531659141344cd1fd0a4f28419497f9722a3daafe3b4186f6b6457e060405160405180910390a35050565b600073ffffffffffffffffffffffffffffffffffffffff82169050919050565b600061019e82610173565b9050919050565b6101ae81610193565b82525050565b60006020820190506101c960008301846101a5565b92915050565b614671806101de6000396000f3fe60806040526004361061007b5760003560e01c8063af236af41161004e578063af236af414610116578063dce0b4e41461012d578063ece86c2114610158578063f2fde38b146101885761007b565b80630b78f9c014610080578063715018a6146100a9578063737054bc146100c05780638da5cb5b146100eb575b600080fd5b34801561008c57600080fd5b506100a760048036038101906100a291906106bf565b6101b1565b005b3480156100b557600080fd5b506100be6101cb565b005b3480156100cc57600080fd5b506100d56101df565b6040516100e2919061070e565b60405180910390f35b3480156100f757600080fd5b506101006101e5565b60405161010d919061076a565b60405180910390f35b34801561012257600080fd5b5061012b61020e565b005b34801561013957600080fd5b506101426102cc565b60405161014f919061070e565b60405180910390f35b610172600480360381019061016d91906107ea565b6102d2565b60405161017f919061076a565b60405180910390f35b34801561019457600080fd5b506101af60048036038101906101aa91906108ca565b610499565b005b6101b961051f565b81600181905550806002819055505050565b6101d361051f565b6101dd60006105a6565b565b60025481565b60008060009054906101000a900473ffffffffffffffffffffffffffffffffffffffff16905090565b61021661051f565b60006102206101e5565b73ffffffffffffffffffffffffffffffffffffffff164760405161024390610928565b60006040518083038185875af1925050503d8060008114610280576040519150601f19603f3d011682016040523d82523d6000602084013e610285565b606091505b50509050806102c9576040517f08c379a00000000000000000000000000000000000000000000000000000000081526004016102c09061099a565b60405180910390fd5b50565b60015481565b6000600154341015610319576040517f08c379a000000000000000000000000000000000000000000000000000000000815260040161031090610a06565b60405180910390fd5b6000878787878787333060405161032f90610672565b610340989796959493929190610a73565b604051809103906000f08015801561035c573d6000803e3d6000fd5b5090506001543411156104245760003373ffffffffffffffffffffffffffffffffffffffff16600154346103909190610b10565b60405161039c90610928565b60006040518083038185875af1925050503d80600081146103d9576040519150601f19603f3d011682016040523d82523d6000602084013e6103de565b606091505b5050905080610422576040517f08c379a000000000000000000000000000000000000000000000000000000000815260040161041990610b90565b60405180910390fd5b505b3373ffffffffffffffffffffffffffffffffffffffff168173ffffffffffffffffffffffffffffffffffffffff167f7e5676d2746b13514d76affe87cdfedb38b2e4b30d5320362e59a286c0b1fc5f8a8a604051610483929190610bb0565b60405180910390a3809150509695505050505050565b6104a161051f565b600073ffffffffffffffffffffffffffffffffffffffff168173ffffffffffffffffffffffffffffffffffffffff16036105135760006040517f1e4fbdf700000000000000000000000000000000000000000000000000000000815260040161050a919061076a565b60405180910390fd5b61051c816105a6565b50565b61052761066a565b73ffffffffffffffffffffffffffffffffffffffff166105456101e5565b73ffffffffffffffffffffffffffffffffffffffff16146105a45761056861066a565b6040517f118cdaa700000000000000000000000000000000000000000000000000000000815260040161059b919061076a565b60405180910390fd5b565b60008060009054906101000a900473ffffffffffffffffffffffffffffffffffffffff169050816000806101000a81548173ffffffffffffffffffffffffffffffffffffffff021916908373ffffffffffffffffffffffffffffffffffffffff1602179055508173ffffffffffffffffffffffffffffffffffffffff168173ffffffffffffffffffffffffffffffffffffffff167f8be0079c531659141344cd1fd0a4f28419497f9722a3daafe3b4186f6b6457e060405160405180910390a35050565b600033905090565b613a6780610bd583390190565b600080fd5b600080fd5b6000819050919050565b61069c81610689565b81146106a757600080fd5b50565b6000813590506106b981610693565b92915050565b600080604083850312156106d6576106d561067f565b5b60006106e4858286016106aa565b92505060206106f5858286016106aa565b9150509250929050565b61070881610689565b82525050565b600060208201905061072360008301846106ff565b92915050565b600073ffffffffffffffffffffffffffffffffffffffff82169050919050565b600061075482610729565b9050919050565b61076481610749565b82525050565b600060208201905061077f600083018461075b565b92915050565b600080fd5b600080fd5b600080fd5b60008083601f8401126107aa576107a9610785565b5b8235905067ffffffffffffffff8111156107c7576107c661078a565b5b6020830191508360018202830111156107e3576107e261078f565b5b9250929050565b600080600080600080606087890312156108075761080661067f565b5b600087013567ffffffffffffffff81111561082557610824610684565b5b61083189828a01610794565b9650965050602087013567ffffffffffffffff81111561085457610853610684565b5b61086089828a01610794565b9450945050604087013567ffffffffffffffff81111561088357610882610684565b5b61088f89828a01610794565b92509250509295509295509295565b6108a781610749565b81146108b257600080fd5b50565b6000813590506108c48161089e565b92915050565b6000602082840312156108e0576108df61067f565b5b60006108ee848285016108b5565b91505092915050565b600081905092915050565b50565b60006109126000836108f7565b915061091d82610902565b600082019050919050565b600061093382610905565b9150819050919050565b600082825260208201905092915050565b7f5769746864726177206661696c65640000000000000000000000000000000000600082015250565b6000610984600f8361093d565b915061098f8261094e565b602082019050919050565b600060208201905081810360008301526109b381610977565b9050919050565b7f496e73756666696369656e742066656500000000000000000000000000000000600082015250565b60006109f060108361093d565b91506109fb826109ba565b602082019050919050565b60006020820190508181036000830152610a1f816109e3565b9050919050565b82818337600083830152505050565b6000601f19601f8301169050919050565b6000610a52838561093d565b9350610a5f838584610a26565b610a6883610a35565b840190509392505050565b600060a0820190508181036000830152610a8e818a8c610a46565b90508181036020830152610aa381888a610a46565b90508181036040830152610ab8818688610a46565b9050610ac7606083018561075b565b610ad4608083018461075b565b9998505050505050505050565b7f4e487b7100000000000000000000000000000000000000000000000000000000600052601160045260246000fd5b6000610b1b82610689565b9150610b2683610689565b9250828203905081811115610b3e57610b3d610ae1565b5b92915050565b7f526566756e64206661696c656400000000000000000000000000000000000000600082015250565b6000610b7a600d8361093d565b9150610b8582610b44565b602082019050919050565b60006020820190508181036000830152610ba981610b6d565b9050919050565b60006020820190508181036000830152610bcb818486610a46565b9050939250505056fe60a06040526001600a5534801561001557600080fd5b50604051613a67380380613a6783398181016040528101906100379190610589565b81858581600090816100499190610879565b5080600190816100599190610879565b505050600073ffffffffffffffffffffffffffffffffffffffff168173ffffffffffffffffffffffffffffffffffffffff16036100ce5760006040517f1e4fbdf70000000000000000000000000000000000000000000000000000000081526004016100c5919061095a565b60405180910390fd5b6100dd8161013e60201b60201c565b508073ffffffffffffffffffffffffffffffffffffffff1660808173ffffffffffffffffffffffffffffffffffffffff168152505082600b90816101219190610879565b50610134826101f461020460201b60201c565b50505050506109f6565b6000600960009054906101000a900473ffffffffffffffffffffffffffffffffffffffff16905081600960006101000a81548173ffffffffffffffffffffffffffffffffffffffff021916908373ffffffffffffffffffffffffffffffffffffffff1602179055508173ffffffffffffffffffffffffffffffffffffffff168173ffffffffffffffffffffffffffffffffffffffff167f8be0079c531659141344cd1fd0a4f28419497f9722a3daafe3b4186f6b6457e060405160405180910390a35050565b60006102146103ac60201b60201c565b6bffffffffffffffffffffffff16905080826bffffffffffffffffffffffff1611156102795781816040517f6f483d090000000000000000000000000000000000000000000000000000000081526004016102709291906109cd565b60405180910390fd5b600073ffffffffffffffffffffffffffffffffffffffff168373ffffffffffffffffffffffffffffffffffffffff16036102eb5760006040517fb6d9900a0000000000000000000000000000000000000000000000000000000081526004016102e2919061095a565b60405180910390fd5b60405180604001604052808473ffffffffffffffffffffffffffffffffffffffff168152602001836bffffffffffffffffffffffff16815250600760008201518160000160006101000a81548173ffffffffffffffffffffffffffffffffffffffff021916908373ffffffffffffffffffffffffffffffffffffffff16021790555060208201518160000160146101000a8154816bffffffffffffffffffffffff02191690836bffffffffffffffffffffffff160217905550905050505050565b6000612710905090565b6000604051905090565b600080fd5b600080fd5b600080fd5b600080fd5b6000601f19601f8301169050919050565b7f4e487b7100000000000000000000000000000000000000000000000000000000600052604160045260246000fd5b61041d826103d4565b810181811067ffffffffffffffff8211171561043c5761043b6103e5565b5b80604052505050565b600061044f6103b6565b905061045b8282610414565b919050565b600067ffffffffffffffff82111561047b5761047a6103e5565b5b610484826103d4565b9050602081019050919050565b60005b838110156104af578082015181840152602081019050610494565b60008484015250505050565b60006104ce6104c984610460565b610445565b9050828152602081018484840111156104ea576104e96103cf565b5b6104f5848285610491565b509392505050565b600082601f830112610512576105116103ca565b5b81516105228482602086016104bb565b91505092915050565b600073ffffffffffffffffffffffffffffffffffffffff82169050919050565b60006105568261052b565b9050919050565b6105668161054b565b811461057157600080fd5b50565b6000815190506105838161055d565b92915050565b600080600080600060a086880312156105a5576105a46103c0565b5b600086015167ffffffffffffffff8111156105c3576105c26103c5565b5b6105cf888289016104fd565b955050602086015167ffffffffffffffff8111156105f0576105ef6103c5565b5b6105fc888289016104fd565b945050604086015167ffffffffffffffff81111561061d5761061c6103c5565b5b610629888289016104fd565b935050606061063a88828901610574565b925050608061064b88828901610574565b9150509295509295909350565b600081519050919050565b7f4e487b7100000000000000000000000000000000000000000000000000000000600052602260045260246000fd5b600060028204905060018216806106aa57607f821691505b6020821081036106bd576106bc610663565b5b50919050565b60008190508160005260206000209050919050565b60006020601f8301049050919050565b600082821b905092915050565b6000600883026107257fffffffffffffffffffffffffffffffffffffffffffffffffffffffffffffffff826106e8565b61072f86836106e8565b95508019841693508086168417925050509392505050565b6000819050919050565b6000819050919050565b600061077661077161076c84610747565b610751565b610747565b9050919050565b6000819050919050565b6107908361075b565b6107a461079c8261077d565b8484546106f5565b825550505050565b600090565b6107b96107ac565b6107c4818484610787565b505050565b5b818110156107e8576107dd6000826107b1565b6001810190506107ca565b5050565b601f82111561082d576107fe816106c3565b610807846106d8565b81016020851015610816578190505b61082a610822856106d8565b8301826107c9565b50505b505050565b600082821c905092915050565b600061085060001984600802610832565b1980831691505092915050565b6000610869838361083f565b9150826002028217905092915050565b61088282610658565b67ffffffffffffffff81111561089b5761089a6103e5565b5b6108a58254610692565b6108b08282856107ec565b600060209050601f8311600181146108e357600084156108d1578287015190505b6108db858261085d565b865550610943565b601f1984166108f1866106c3565b60005b82811015610919578489015182556001820191506020850194506020810190506108f4565b868310156109365784890151610932601f89168261083f565b8355505b6001600288020188555050505b505050505050565b6109548161054b565b82525050565b600060208201905061096f600083018461094b565b92915050565b60006bffffffffffffffffffffffff82169050919050565b60006109a86109a361099e84610975565b610751565b610747565b9050919050565b6109b88161098d565b82525050565b6109c781610747565b82525050565b60006040820190506109e260008301856109af565b6109ef60208301846109be565b9392505050565b608051613048610a1f60003960008181610a7301528181610aac0152610b8201526130486000f3fe60806040526004361061011f5760003560e01c80637400deab116100a0578063c45a015511610064578063c45a0155146103e6578063c87b56dd14610411578063d0def5211461044e578063e985e9c51461047e578063f2fde38b146104bb5761011f565b80637400deab146103135780638da5cb5b1461033e57806395d89b4114610369578063a22cb46514610394578063b88d4fde146103bd5761011f565b80632a55205a116100e75780632a55205a1461021b57806342842e0e146102595780636352211e1461028257806370a08231146102bf578063715018a6146102fc5761011f565b806301ffc9a71461012457806306fdde0314610161578063081812fc1461018c578063095ea7b3146101c957806323b872dd146101f2575b600080fd5b34801561013057600080fd5b5061014b600480360381019061014691906121e8565b6104e4565b6040516101589190612230565b60405180910390f35b34801561016d57600080fd5b506101766104f6565b60405161018391906122db565b60405180910390f35b34801561019857600080fd5b506101b360048036038101906101ae9190612333565b610588565b6040516101c091906123a1565b60405180910390f35b3480156101d557600080fd5b506101f060048036038101906101eb91906123e8565b6105a4565b005b3480156101fe57600080fd5b5061021960048036038101906102149190612428565b6105ba565b005b34801561022757600080fd5b50610242600480360381019061023d919061247b565b6106bc565b6040516102509291906124ca565b60405180910390f35b34801561026557600080fd5b50610280600480360381019061027b9190612428565b6107ec565b005b34801561028e57600080fd5b506102a960048036038101906102a49190612333565b61080c565b6040516102b691906123a1565b60405180910390f35b3480156102cb57600080fd5b506102e660048036038101906102e191906124f3565b61081e565b6040516102f39190612520565b60405180910390f35b34801561030857600080fd5b506103116108d8565b005b34801561031f57600080fd5b506103286108ec565b60405161033591906122db565b60405180910390f35b34801561034a57600080fd5b5061035361097a565b60405161036091906123a1565b60405180910390f35b34801561037557600080fd5b5061037e6109a4565b60405161038b91906122db565b60405180910390f35b3480156103a057600080fd5b506103bb60048036038101906103b69190612567565b610a36565b005b3480156103c957600080fd5b506103e460048036038101906103df91906126dc565b610a4c565b005b3480156103f257600080fd5b506103fb610a71565b60405161040891906123a1565b60405180910390f35b34801561041d57600080fd5b5061043860048036038101906104339190612333565b610a95565b60405161044591906122db565b60405180910390f35b610468600480360381019061046391906127bf565b610aa7565b6040516104759190612520565b60405180910390f35b34801561048a57600080fd5b506104a560048036038101906104a0919061281f565b610df9565b6040516104b29190612230565b60405180910390f35b3480156104c757600080fd5b506104e260048036038101906104dd91906124f3565b610e8d565b005b60006104ef82610f13565b9050919050565b6060600080546105059061288e565b80601f01602080910402602001604051908101604052809291908181526020018280546105319061288e565b801561057e5780601f106105535761010080835404028352916020019161057e565b820191906000526020600020905b81548152906001019060200180831161056157829003601f168201915b5050505050905090565b600061059382610f8d565b5061059d82611015565b9050919050565b6105b682826105b1611052565b61105a565b5050565b600073ffffffffffffffffffffffffffffffffffffffff168273ffffffffffffffffffffffffffffffffffffffff160361062c5760006040517f64a0ae9200000000000000000000000000000000000000000000000000000000815260040161062391906123a1565b60405180910390fd5b6000610640838361063b611052565b61106c565b90508373ffffffffffffffffffffffffffffffffffffffff168173ffffffffffffffffffffffffffffffffffffffff16146106b6578382826040517f64283d7b0000000000000000000000000000000000000000000000000000000081526004016106ad939291906128bf565b60405180910390fd5b50505050565b600080600060086000868152602001908152602001600020905060008160000160009054906101000a900473ffffffffffffffffffffffffffffffffffffffff16905060008260000160149054906101000a90046bffffffffffffffffffffffff169050600073ffffffffffffffffffffffffffffffffffffffff168273ffffffffffffffffffffffffffffffffffffffff160361079d57600760000160009054906101000a900473ffffffffffffffffffffffffffffffffffffffff169150600760000160149054906101000a90046bffffffffffffffffffffffff1690505b60006107a7611286565b6bffffffffffffffffffffffff16826bffffffffffffffffffffffff16886107cf9190612925565b6107d99190612996565b9050828195509550505050509250929050565b61080783838360405180602001604052806000815250610a4c565b505050565b600061081782610f8d565b9050919050565b60008073ffffffffffffffffffffffffffffffffffffffff168273ffffffffffffffffffffffffffffffffffffffff16036108915760006040517f89c62b6400000000000000000000000000000000000000000000000000000000815260040161088891906123a1565b60405180910390fd5b600360008373ffffffffffffffffffffffffffffffffffffffff1673ffffffffffffffffffffffffffffffffffffffff168152602001908152602001600020549050919050565b6108e0611290565b6108ea6000611317565b565b600b80546108f99061288e565b80601f01602080910402602001604051908101604052809291908181526020018280546109259061288e565b80156109725780601f1061094757610100808354040283529160200191610972565b820191906000526020600020905b81548152906001019060200180831161095557829003601f168201915b505050505081565b6000600960009054906101000a900473ffffffffffffffffffffffffffffffffffffffff16905090565b6060600180546109b39061288e565b80601f01602080910402602001604051908101604052809291908181526020018280546109df9061288e565b8015610a2c5780601f10610a0157610100808354040283529160200191610a2c565b820191906000526020600020905b815481529060010190602001808311610a0f57829003601f168201915b5050505050905090565b610a48610a41611052565b83836113dd565b5050565b610a578484846105ba565b610a6b610a62611052565b8585858561154c565b50505050565b7f000000000000000000000000000000000000000000000000000000000000000081565b6060610aa0826116fd565b9050919050565b6000807f000000000000000000000000000000000000000000000000000000000000000073ffffffffffffffffffffffffffffffffffffffff1663737054bc6040518163ffffffff1660e01b8152600401602060405180830381865afa158015610b15573d6000803e3d6000fd5b505050506040513d601f19601f82011682018060405250810190610b3991906129dc565b905080341015610b7e576040517f08c379a0000000000000000000000000000000000000000000000000000000008152600401610b7590612a55565b60405180910390fd5b60007f000000000000000000000000000000000000000000000000000000000000000073ffffffffffffffffffffffffffffffffffffffff16638da5cb5b6040518163ffffffff1660e01b8152600401602060405180830381865afa158015610beb573d6000803e3d6000fd5b505050506040513d601f19601f82011682018060405250810190610c0f9190612a8a565b73ffffffffffffffffffffffffffffffffffffffff1682604051610c3290612ae8565b60006040518083038185875af1925050503d8060008114610c6f576040519150601f19603f3d011682016040523d82523d6000602084013e610c74565b606091505b5050905080610cb8576040517f08c379a0000000000000000000000000000000000000000000000000000000008152600401610caf90612b49565b60405180910390fd5b6000600a6000815480929190610ccd90612b69565b919050559050610cdd8782611810565b610d2b8187878080601f016020809104026020016040519081016040528093929190818152602001838380828437600081840152601f19601f8201169050808301925050505050505061182e565b82341115610dec5760003373ffffffffffffffffffffffffffffffffffffffff168434610d589190612bb1565b604051610d6490612ae8565b60006040518083038185875af1925050503d8060008114610da1576040519150601f19603f3d011682016040523d82523d6000602084013e610da6565b606091505b5050905080610dea576040517f08c379a0000000000000000000000000000000000000000000000000000000008152600401610de190612c31565b60405180910390fd5b505b8093505050509392505050565b6000600560008473ffffffffffffffffffffffffffffffffffffffff1673ffffffffffffffffffffffffffffffffffffffff16815260200190815260200160002060008373ffffffffffffffffffffffffffffffffffffffff1673ffffffffffffffffffffffffffffffffffffffff16815260200190815260200160002060009054906101000a900460ff16905092915050565b610e95611290565b600073ffffffffffffffffffffffffffffffffffffffff168173ffffffffffffffffffffffffffffffffffffffff1603610f075760006040517f1e4fbdf7000000000000000000000000000000000000000000000000000000008152600401610efe91906123a1565b60405180910390fd5b610f1081611317565b50565b60007f2a55205a000000000000000000000000000000000000000000000000000000007bffffffffffffffffffffffffffffffffffffffffffffffffffffffff1916827bffffffffffffffffffffffffffffffffffffffffffffffffffffffff19161480610f865750610f858261188a565b5b9050919050565b600080610f99836118eb565b9050600073ffffffffffffffffffffffffffffffffffffffff168173ffffffffffffffffffffffffffffffffffffffff160361100c57826040517f7e2732890000000000000000000000000000000000000000000000000000000081526004016110039190612520565b60405180910390fd5b80915050919050565b60006004600083815260200190815260200160002060009054906101000a900473ffffffffffffffffffffffffffffffffffffffff169050919050565b600033905090565b6110678383836001611928565b505050565b600080611078846118eb565b9050600073ffffffffffffffffffffffffffffffffffffffff168373ffffffffffffffffffffffffffffffffffffffff16146110ba576110b9818486611aed565b5b600073ffffffffffffffffffffffffffffffffffffffff168173ffffffffffffffffffffffffffffffffffffffff161461114b576110fc600085600080611928565b6001600360008373ffffffffffffffffffffffffffffffffffffffff1673ffffffffffffffffffffffffffffffffffffffff168152602001908152602001600020600082825403925050819055505b600073ffffffffffffffffffffffffffffffffffffffff168573ffffffffffffffffffffffffffffffffffffffff16146111ce576001600360008773ffffffffffffffffffffffffffffffffffffffff1673ffffffffffffffffffffffffffffffffffffffff168152602001908152602001600020600082825401925050819055505b846002600086815260200190815260200160002060006101000a81548173ffffffffffffffffffffffffffffffffffffffff021916908373ffffffffffffffffffffffffffffffffffffffff160217905550838573ffffffffffffffffffffffffffffffffffffffff168273ffffffffffffffffffffffffffffffffffffffff167fddf252ad1be2c89b69c2b068fc378daa952ba7f163c4a11628f55a4df523b3ef60405160405180910390a4809150509392505050565b6000612710905090565b611298611052565b73ffffffffffffffffffffffffffffffffffffffff166112b661097a565b73ffffffffffffffffffffffffffffffffffffffff1614611315576112d9611052565b6040517f118cdaa700000000000000000000000000000000000000000000000000000000815260040161130c91906123a1565b60405180910390fd5b565b6000600960009054906101000a900473ffffffffffffffffffffffffffffffffffffffff16905081600960006101000a81548173ffffffffffffffffffffffffffffffffffffffff021916908373ffffffffffffffffffffffffffffffffffffffff1602179055508173ffffffffffffffffffffffffffffffffffffffff168173ffffffffffffffffffffffffffffffffffffffff167f8be0079c531659141344cd1fd0a4f28419497f9722a3daafe3b4186f6b6457e060405160405180910390a35050565b600073ffffffffffffffffffffffffffffffffffffffff168273ffffffffffffffffffffffffffffffffffffffff160361144e57816040517f5b08ba1800000000000000000000000000000000000000000000000000000000815260040161144591906123a1565b60405180910390fd5b80600560008573ffffffffffffffffffffffffffffffffffffffff1673ffffffffffffffffffffffffffffffffffffffff16815260200190815260200160002060008473ffffffffffffffffffffffffffffffffffffffff1673ffffffffffffffffffffffffffffffffffffffff16815260200190815260200160002060006101000a81548160ff0219169083151502179055508173ffffffffffffffffffffffffffffffffffffffff168373ffffffffffffffffffffffffffffffffffffffff167f17307eab39ab6107e8899845ad3d59bd9653f200f220920489ca2b5937696c318360405161153f9190612230565b60405180910390a3505050565b60008373ffffffffffffffffffffffffffffffffffffffff163b11156116f6578273ffffffffffffffffffffffffffffffffffffffff1663150b7a02868685856040518563ffffffff1660e01b81526004016115ab9493929190612ca6565b6020604051808303816000875af19250505080156115e757506040513d601f19601f820116820180604052508101906115e49190612d07565b60015b61166b573d8060008114611617576040519150601f19603f3d011682016040523d82523d6000602084013e61161c565b606091505b50600081510361166357836040517f64a0ae9200000000000000000000000000000000000000000000000000000000815260040161165a91906123a1565b60405180910390fd5b805160208201fd5b63150b7a0260e01b7bffffffffffffffffffffffffffffffffffffffffffffffffffffffff1916817bffffffffffffffffffffffffffffffffffffffffffffffffffffffff1916146116f457836040517f64a0ae920000000000000000000000000000000000000000000000000000000081526004016116eb91906123a1565b60405180910390fd5b505b5050505050565b606061170882610f8d565b5060006006600084815260200190815260200160002080546117299061288e565b80601f01602080910402602001604051908101604052809291908181526020018280546117559061288e565b80156117a25780601f10611777576101008083540402835291602001916117a2565b820191906000526020600020905b81548152906001019060200180831161178557829003601f168201915b5050505050905060006117b3611bb1565b905060008151036117c857819250505061180b565b6000825111156117fd5780826040516020016117e5929190612d70565b6040516020818303038152906040529250505061180b565b61180684611bc8565b925050505b919050565b61182a828260405180602001604052806000815250611c31565b5050565b8060066000848152602001908152602001600020908161184e9190612f40565b507ff8e1a15aba9398e019f0b49df1a4fde98ee17ae345cb5f6b5e2c27f5033e8ce78260405161187e9190612520565b60405180910390a15050565b6000634906490660e01b7bffffffffffffffffffffffffffffffffffffffffffffffffffffffff1916827bffffffffffffffffffffffffffffffffffffffffffffffffffffffff191614806118e457506118e382611c55565b5b9050919050565b60006002600083815260200190815260200160002060009054906101000a900473ffffffffffffffffffffffffffffffffffffffff169050919050565b80806119615750600073ffffffffffffffffffffffffffffffffffffffff168273ffffffffffffffffffffffffffffffffffffffff1614155b15611a9557600061197184610f8d565b9050600073ffffffffffffffffffffffffffffffffffffffff168373ffffffffffffffffffffffffffffffffffffffff16141580156119dc57508273ffffffffffffffffffffffffffffffffffffffff168173ffffffffffffffffffffffffffffffffffffffff1614155b80156119ef57506119ed8184610df9565b155b15611a3157826040517fa9fbf51f000000000000000000000000000000000000000000000000000000008152600401611a2891906123a1565b60405180910390fd5b8115611a9357838573ffffffffffffffffffffffffffffffffffffffff168273ffffffffffffffffffffffffffffffffffffffff167f8c5be1e5ebec7d5bd14f71427d1e84f3dd0314c0f7b2291e5b200ac8c7c3b92560405160405180910390a45b505b836004600085815260200190815260200160002060006101000a81548173ffffffffffffffffffffffffffffffffffffffff021916908373ffffffffffffffffffffffffffffffffffffffff16021790555050505050565b611af8838383611d37565b611bac57600073ffffffffffffffffffffffffffffffffffffffff168373ffffffffffffffffffffffffffffffffffffffff1603611b6d57806040517f7e273289000000000000000000000000000000000000000000000000000000008152600401611b649190612520565b60405180910390fd5b81816040517f177e802f000000000000000000000000000000000000000000000000000000008152600401611ba39291906124ca565b60405180910390fd5b505050565b606060405180602001604052806000815250905090565b6060611bd382610f8d565b506000611bde611bb1565b90506000815111611bfe5760405180602001604052806000815250611c29565b80611c0884611df8565b604051602001611c19929190612d70565b6040516020818303038152906040525b915050919050565b611c3b8383611ec6565b611c50611c46611052565b600085858561154c565b505050565b60007f80ac58cd000000000000000000000000000000000000000000000000000000007bffffffffffffffffffffffffffffffffffffffffffffffffffffffff1916827bffffffffffffffffffffffffffffffffffffffffffffffffffffffff19161480611d2057507f5b5e139f000000000000000000000000000000000000000000000000000000007bffffffffffffffffffffffffffffffffffffffffffffffffffffffff1916827bffffffffffffffffffffffffffffffffffffffffffffffffffffffff1916145b80611d305750611d2f82611fbf565b5b9050919050565b60008073ffffffffffffffffffffffffffffffffffffffff168373ffffffffffffffffffffffffffffffffffffffff1614158015611def57508273ffffffffffffffffffffffffffffffffffffffff168473ffffffffffffffffffffffffffffffffffffffff161480611db05750611daf8484610df9565b5b80611dee57508273ffffffffffffffffffffffffffffffffffffffff16611dd683611015565b73ffffffffffffffffffffffffffffffffffffffff16145b5b90509392505050565b606060006001611e0784612029565b01905060008167ffffffffffffffff811115611e2657611e256125b1565b5b6040519080825280601f01601f191660200182016040528015611e585781602001600182028036833780820191505090505b509050600082602083010190505b600115611ebb578080600190039150507f3031323334353637383961626364656600000000000000000000000000000000600a86061a8153600a8581611eaf57611eae612967565b5b04945060008503611e66575b819350505050919050565b600073ffffffffffffffffffffffffffffffffffffffff168273ffffffffffffffffffffffffffffffffffffffff1603611f385760006040517f64a0ae92000000000000000000000000000000000000000000000000000000008152600401611f2f91906123a1565b60405180910390fd5b6000611f468383600061106c565b9050600073ffffffffffffffffffffffffffffffffffffffff168173ffffffffffffffffffffffffffffffffffffffff1614611fba5760006040517f73c6ac6e000000000000000000000000000000000000000000000000000000008152600401611fb191906123a1565b60405180910390fd5b505050565b60007f01ffc9a7000000000000000000000000000000000000000000000000000000007bffffffffffffffffffffffffffffffffffffffffffffffffffffffff1916827bffffffffffffffffffffffffffffffffffffffffffffffffffffffff1916149050919050565b600080600090507a184f03e93ff9f4daa797ed6e38ed64bf6a1f0100000000000000008310612087577a184f03e93ff9f4daa797ed6e38ed64bf6a1f010000000000000000838161207d5761207c612967565b5b0492506040810190505b6d04ee2d6d415b85acef810000000083106120c4576d04ee2d6d415b85acef810000000083816120ba576120b9612967565b5b0492506020810190505b662386f26fc1000083106120f357662386f26fc1000083816120e9576120e8612967565b5b0492506010810190505b6305f5e100831061211c576305f5e100838161211257612111612967565b5b0492506008810190505b612710831061214157612710838161213757612136612967565b5b0492506004810190505b60648310612164576064838161215a57612159612967565b5b0492506002810190505b600a8310612173576001810190505b80915050919050565b6000604051905090565b600080fd5b600080fd5b60007fffffffff0000000000000000000000000000000000000000000000000000000082169050919050565b6121c581612190565b81146121d057600080fd5b50565b6000813590506121e2816121bc565b92915050565b6000602082840312156121fe576121fd612186565b5b600061220c848285016121d3565b91505092915050565b60008115159050919050565b61222a81612215565b82525050565b60006020820190506122456000830184612221565b92915050565b600081519050919050565b600082825260208201905092915050565b60005b8381101561228557808201518184015260208101905061226a565b60008484015250505050565b6000601f19601f8301169050919050565b60006122ad8261224b565b6122b78185612256565b93506122c7818560208601612267565b6122d081612291565b840191505092915050565b600060208201905081810360008301526122f581846122a2565b905092915050565b6000819050919050565b612310816122fd565b811461231b57600080fd5b50565b60008135905061232d81612307565b92915050565b60006020828403121561234957612348612186565b5b60006123578482850161231e565b91505092915050565b600073ffffffffffffffffffffffffffffffffffffffff82169050919050565b600061238b82612360565b9050919050565b61239b81612380565b82525050565b60006020820190506123b66000830184612392565b92915050565b6123c581612380565b81146123d057600080fd5b50565b6000813590506123e2816123bc565b92915050565b600080604083850312156123ff576123fe612186565b5b600061240d858286016123d3565b925050602061241e8582860161231e565b9150509250929050565b60008060006060848603121561244157612440612186565b5b600061244f868287016123d3565b9350506020612460868287016123d3565b92505060406124718682870161231e565b9150509250925092565b6000806040838503121561249257612491612186565b5b60006124a08582860161231e565b92505060206124b18582860161231e565b9150509250929050565b6124c4816122fd565b82525050565b60006040820190506124df6000830185612392565b6124ec60208301846124bb565b9392505050565b60006020828403121561250957612508612186565b5b6000612517848285016123d3565b91505092915050565b600060208201905061253560008301846124bb565b92915050565b61254481612215565b811461254f57600080fd5b50565b6000813590506125618161253b565b92915050565b6000806040838503121561257e5761257d612186565b5b600061258c858286016123d3565b925050602061259d85828601612552565b9150509250929050565b600080fd5b600080fd5b7f4e487b7100000000000000000000000000000000000000000000000000000000600052604160045260246000fd5b6125e982612291565b810181811067ffffffffffffffff82111715612608576126076125b1565b5b80604052505050565b600061261b61217c565b905061262782826125e0565b919050565b600067ffffffffffffffff821115612647576126466125b1565b5b61265082612291565b9050602081019050919050565b82818337600083830152505050565b600061267f61267a8461262c565b612611565b90508281526020810184848401111561269b5761269a6125ac565b5b6126a684828561265d565b509392505050565b600082601f8301126126c3576126c26125a7565b5b81356126d384826020860161266c565b91505092915050565b600080600080608085870312156126f6576126f5612186565b5b6000612704878288016123d3565b9450506020612715878288016123d3565b93505060406127268782880161231e565b925050606085013567ffffffffffffffff8111156127475761274661218b565b5b612753878288016126ae565b91505092959194509250565b600080fd5b600080fd5b60008083601f84011261277f5761277e6125a7565b5b8235905067ffffffffffffffff81111561279c5761279b61275f565b5b6020830191508360018202830111156127b8576127b7612764565b5b9250929050565b6000806000604084860312156127d8576127d7612186565b5b60006127e6868287016123d3565b935050602084013567ffffffffffffffff8111156128075761280661218b565b5b61281386828701612769565b92509250509250925092565b6000806040838503121561283657612835612186565b5b6000612844858286016123d3565b9250506020612855858286016123d3565b9150509250929050565b7f4e487b7100000000000000000000000000000000000000000000000000000000600052602260045260246000fd5b600060028204905060018216806128a657607f821691505b6020821081036128b9576128b861285f565b5b50919050565b60006060820190506128d46000830186612392565b6128e160208301856124bb565b6128ee6040830184612392565b949350505050565b7f4e487b7100000000000000000000000000000000000000000000000000000000600052601160045260246000fd5b6000612930826122fd565b915061293b836122fd565b9250828202612949816122fd565b915082820484148315176129605761295f6128f6565b5b5092915050565b7f4e487b7100000000000000000000000000000000000000000000000000000000600052601260045260246000fd5b60006129a1826122fd565b91506129ac836122fd565b9250826129bc576129bb612967565b5b828204905092915050565b6000815190506129d681612307565b92915050565b6000602082840312156129f2576129f1612186565b5b6000612a00848285016129c7565b91505092915050565b7f496e73756666696369656e74206d696e74206665650000000000000000000000600082015250565b6000612a3f601583612256565b9150612a4a82612a09565b602082019050919050565b60006020820190508181036000830152612a6e81612a32565b9050919050565b600081519050612a84816123bc565b92915050565b600060208284031215612aa057612a9f612186565b5b6000612aae84828501612a75565b91505092915050565b600081905092915050565b50565b6000612ad2600083612ab7565b9150612add82612ac2565b600082019050919050565b6000612af382612ac5565b9150819050919050565b7f50726f746f636f6c20666565206661696c656400000000000000000000000000600082015250565b6000612b33601383612256565b9150612b3e82612afd565b602082019050919050565b60006020820190508181036000830152612b6281612b26565b9050919050565b6000612b74826122fd565b91507fffffffffffffffffffffffffffffffffffffffffffffffffffffffffffffffff8203612ba657612ba56128f6565b5b600182019050919050565b6000612bbc826122fd565b9150612bc7836122fd565b9250828203905081811115612bdf57612bde6128f6565b5b92915050565b7f526566756e64206661696c656400000000000000000000000000000000000000600082015250565b6000612c1b600d83612256565b9150612c2682612be5565b602082019050919050565b60006020820190508181036000830152612c4a81612c0e565b9050919050565b600081519050919050565b600082825260208201905092915050565b6000612c7882612c51565b612c828185612c5c565b9350612c92818560208601612267565b612c9b81612291565b840191505092915050565b6000608082019050612cbb6000830187612392565b612cc86020830186612392565b612cd560408301856124bb565b8181036060830152612ce78184612c6d565b905095945050505050565b600081519050612d01816121bc565b92915050565b600060208284031215612d1d57612d1c612186565b5b6000612d2b84828501612cf2565b91505092915050565b600081905092915050565b6000612d4a8261224b565b612d548185612d34565b9350612d64818560208601612267565b80840191505092915050565b6000612d7c8285612d3f565b9150612d888284612d3f565b91508190509392505050565b60008190508160005260206000209050919050565b60006020601f8301049050919050565b600082821b905092915050565b600060088302612df67fffffffffffffffffffffffffffffffffffffffffffffffffffffffffffffffff82612db9565b612e008683612db9565b95508019841693508086168417925050509392505050565b6000819050919050565b6000612e3d612e38612e33846122fd565b612e18565b6122fd565b9050919050565b6000819050919050565b612e5783612e22565b612e6b612e6382612e44565b848454612dc6565b825550505050565b600090565b612e80612e73565b612e8b818484612e4e565b505050565b5b81811015612eaf57612ea4600082612e78565b600181019050612e91565b5050565b601f821115612ef457612ec581612d94565b612ece84612da9565b81016020851015612edd578190505b612ef1612ee985612da9565b830182612e90565b50505b505050565b600082821c905092915050565b6000612f1760001984600802612ef9565b1980831691505092915050565b6000612f308383612f06565b9150826002028217905092915050565b612f498261224b565b67ffffffffffffffff811115612f6257612f616125b1565b5b612f6c825461288e565b612f77828285612eb3565b600060209050601f831160018114612faa5760008415612f98578287015190505b612fa28582612f24565b86555061300a565b601f198416612fb886612d94565b60005b82811015612fe057848901518255600182019150602085019450602081019050612fbb565b86831015612ffd5784890151612ff9601f891682612f06565b8355505b6001600288020188555050505b50505050505056fea2646970667358221220c876900fab7b1fc69112e19d788e1449ac243d1010502e3c38845fe60ee3e32b64736f6c634300081c0033a2646970667358221220067bf3a2d4d69acbcaae8d0eea108c2f67ee7c3aba10c3d573904385c52079a964736f6c634300081c0033",
  "linkReferences": {},
  "deployedLinkReferences": {}
}